:060000000A128A110C280F
:10000800FE00030EF0000A08F1000A128A15F42E09
:100018000A128A110F280A128A11FF240A128A1159
:10002800C0000A128A11FE240A128A11FB00B401C8
:10003800B501B601B701B801B901BA01BB01BC01EC
:10004800BD01BE01BF01F901FA0183010A128A113B
:10005800152B83120313AD0031302A06031D3528F2
:1000680036283A28B401B501AD01B8010130B70707
:1000780006303706031D412842284B28B7013608A9
:1000880003194728492801304A280030B600503063
:10009800F6008030F7000A128A154F260A128A11D4
:1000A800DE30F600C030F7000A128A154F260A1211
:1000B8008A111230F600D030F7000A128A154F263E
:1000C8000A128A112A30831203132D0603196D2888
:1000D8006E28992823302D06031973287428992827
:1000E8002D0A03197828792899280130B80705308E
:1000F800380203188028812850293508F30034086D
:10010800F2000A30F4000030F5000A128A15992628
:100118000A128A11831203132D087207B4000030E3
:10012800031801307307B50050292A302D06031D26
:100138009E289F28A328B401B501B801502923306F
:100148002D06031DA828A928502900303502B530EE
:1001580003193402031CB128B228B628B430B400FD
:100168000030B5000A128A15F3250A128A113C30AC
:1001780083120313BD0012158530F6008330F70093
:100188000A128A154F260A128A119C30F6009030FE
:10019800F7000A128A154F260A128A119C30831218
:1001A8000313A80073300A128A1517260A128A1137
:1001B8003F299930A8006430F2000030F3003D0870
:1001C800AB00AC012B08F4002C08F5000A128A11C8
:1001D80029240A128A117208303E0A128A15172633
:1001E8000A128A119A3083120313A8000A30A40055
:1001F8000030A5000A30F2000030F3003D08AB00E3
:10020800AC012B08F4002C08F5000A128A112924E5
:100218000A128A11730883120313A7007208A60032
:100228000A128A15A7270A128A11831203132408AF
:10023800303E0A128A1517260A128A119B30831239
:100248000313A8000A30A4000030A5003D08AB0045
:10025800AC012B08A6002C08A7000A128A15A727AC
:100268000A128A11831203132408303E0A128A15CF
:1002780017260A128A11831203133D08031D452904
:100288004629DD2812110A128A15F3250A128A1145
:10029800303083120313C000360803195429552936
:1002A8007229C730A80020300A128A1517260A12A8
:1002B8008A11C83083120313A80020300A128A1545
:1002C80017260A128A11C93083120313A800203096
:1002D8000A128A1517260A128A11CB29C730A800D4
:1002E8006430F2000030F3003508F5003408F400FB
:1002F8000A128A1565270A128A117208303E0A12F4
:100308008A1517260A128A11C83083120313A80007
:100318000A30A0000030A1000A30F2000030F300DB
:100328003508F5003408F4000A128A1565270A1200
:100338008A11730883120313A3007208A2000A1219
:100348008A152B270A128A11831203132008303EBC
:100358000A128A1517260A128A11C9308312031342
:10036800A8000A30A0000030A1003508A300340816
:10037800A2000A128A152B270A128A118312031364
:100388002008303E0A128A1517260A128A11080018
:1003980083120313AD0031302A06031DD429D52951
:1003A800DA29BF01BE01AD01BB01BC010130F60075
:1003B8008030F7000A128A154F260A128A11D8309F
:1003C800F600C030F7000A128A154F260A128A1161
:1003D800C73083120313A8003A300A128A15172669
:1003E8000A128A111230F600D030F7000A128A1564
:1003F8004F260A128A112A30831203132D06031975
:10040800062A072A3D2A23302D0603190C2A0D2A0D
:100418003D2A2D0A0319112A122A3D2A0130BB0749
:1004280004303B020318192A1A2A282A0A30F20033
:100438003F080A128A1504260A128A118312031326
:100448002D07BF00BC01652A06303B0203182D2A80
:100458002E2A652A0A30F2003E080A128A15042656
:100468000A128A11831203132D07BE000130BC0043
:10047800652A2A302D06031D422A432A542A3C089D
:10048800031D472A482A4B2ABF01BB01652A3C03A2
:10049800031D4F2A502A652ABE010230BB00652A77
:1004A80023302D06031D592A5A2A652A0A128A154D
:1004B800F3250A128A1183120313071512157030D7
:1004C800C0000130BA070B303A06031D6C2A6D2AAA
:1004D800762ABA0139080319722A742A0130752A52
:1004E8000030B900390803197A2A7B2AA62A3C0861
:1004F800031D7F2A802A932AC830A80020300A12B8
:100508008A1517260A128A11C93083120313A80004
:1005180020300A128A1517260A128A11142BC530A0
:10052800A80020300A128A1517260A128A11C63026
:1005380083120313A80020300A128A1517260A12FC
:100548008A11142BC830A8000A30F2000030F300DA
:100558003F08AB00AC012B08F4002C08F5000A1288
:100568008A1129240A128A117208303E0A128A1541
:1005780017260A128A11C93083120313A8000A30F9
:10058800A4000030A5003F08AB00AC012B08A60072
:100598002C08A7000A128A15A7270A128A118312A3
:1005A80003132408303E0A128A1517260A128A11E4
:1005B800C53083120313A8000A30F2000030F3009C
:1005C8003E08AB00AC012B08F4002C08F5000A1219
:1005D8008A1129240A128A117208303E0A128A15D1
:1005E80017260A128A11C63083120313A8000A308C
:1005F800A4000030A5003E08AB00AC012B08A60003
:100608002C08A7000A128A15A7270A128A11831232
:1006180003132408303E0A128A1517260A128A1173
:1006280008000A128A11EB270A128A1101300A12ED
:100638008A152C260A128A1183120313B30020305C
:100648004006031D282B292B7A2B3303031D2D2B42
:100658002E2B562B3030C0000A128A15F3250A12A9
:100668008A116C30F600C230F7000A128A154F263C
:100678000A128A114D3083120313B1001930B000E9
:100688004F30AF00AF0B462BB00B462BB10B462BB0
:100698000A128A15F3250A128A11313083120313BC
:1006A800B200022C02303306031D5B2B5C2B662B39
:1006B8004030C0003130B2000A128A15F3250A1200
:1006C8008A11022C03303306031D6B2B6C2B712B04
:1006D8005030C0003130B200602B04303306031DA7
:1006E800762B772B022C6030C000602B70304006D0
:1006F800031D7F2B802BA62B04303306031D852B6F
:10070800862B942B3F081E3EBF003C303F02031C43
:100718008E2B8F2B942B0130BE073F08C43EBF00A1
:1007280005303306031D992B9A2B9D2B8030C00072
:10073800022C06303306031DA22BA32B022C90306B
:10074800C000022C80304006031DAB2BAC2B022CC2
:1007580004303306031DB12BB22B022C12150715DA
:100768007030C000022C0A128A1181270A128A11DD
:100778000A128A15F3250A128A11203083120313EC
:10078800C000212C0A128A1574260A128A11212CFB
:100798003208AA0033080A128A11CC210A128A11D7
:1007A800212C0A128A11E9250A128A11212C3208F1
:1007B800AA0033080A128A11CC210A128A11212CA4
:1007C8003208AA0033080A128A112D200A128A1147
:1007D800212C0A128A15CE250A128A110A128A15A4
:1007E800F3250A128A11703083120313C000212CDA
:1007F80012110711212C12110711BC2B831203139C
:100808004008103A0319B72B303A0319C62B103A8F
:100818000319CC2B703A0319DB2B103A0319E42B7C
:10082800303A0319ED2B103A0319D52BF03A031976
:10083800FC2B103A0319FF2B212CFF3083120313D2
:10084800B2001A2B0A128A110C2883120313A10171
:10085800F31F2F2C302C372CF209F309F20A031955
:10086800F30A0130A100F51F3A2C3B2C422CF40965
:10087800F509F40A0319F50A0130A106A201A3013A
:10088800720873040319492C4A2C7F2C0130A000EC
:10089800562C01300310F20DF30DFF3E031D4E2CB4
:1008A8000130A007F31F592C5A2C4D2C013003108E
:1008B800A20DA30DFF3E031D5B2C73087502031DDB
:1008C800672C72087402031C6A2C6B2C722C720839
:1008D800F4027308031CF503F50222140130031017
:1008E800F30CF20CFF3E031D732C0130A002031D14
:1008F8007E2C7F2C5A2C21080319832C842C892CBC
:10090800A209A309A20A0319A30A2308F3002208CB
:10091800F2000800C330F700CD30F600F60B922C39
:10092800F70B922CF20133300A128A15BE260A12EE
:100938008A111B30F7009E30F600F60BA12CF70B3E
:10094800A12C0000F20133300A128A15BE260A12C1
:100958008A11A630F600F60BAF2C0000F2013330F6
:100968000A128A15BE260A128A11BA2CBB2C00005C
:10097800F20102300A128A15BE260A128A11A6301E
:10098800F600F60BC52C0000F20128300A128A1571
:10099800BE260A128A11A630F600F60BD12C0000EA
:1009A800F20101300A128A15BE260A128A11043091
:1009B800F7003D30F600F60BDF2CF70BDF2CE42CAC
:1009C800F2010C300A128A15BE260A128A11A630C4
:1009D800F600F60BED2C0000080083120313121426
:1009E8009214FA308316031392008C1483120313A3
:1009F800121108000134103405308A000408840AF2
:100A08008207003453344534543420345434493440
:100A18004D344534203428344D344D343A3453342D
:100A28005334293400342A343A3443344C3445346A
:100A380041345234203423343A3445344E34543417
:100A480045345234003445346E346A346F34793462
:100A5800203479346F347534723420346D3465340D
:100A680061346C34003434342E34533454344134C7
:100A7800523454342F3452344534533455344D346D
:100A8800453400344D346934633472346F34773408
:100A980061347634653420344F34763465346E34BA
:100AA80000345334453454342034543465346D346C
:100AB800703420343C342A3443343E3400343334E4
:100AC8002E34203443346F346E34763465346334D2
:100AD800743469346F346E34003450346F3477347E
:100AE8006534723420343D34203439343034303471
:100AF8005734003450346F34773465347234693481
:100B08006E34673420344F344E34003450347234E9
:100B180065342D34483465346134743469346E3442
:100B280067340034543449344D3445342034553412
:100B380050342134213421340034543469346D3430
:100B480065342034523465346D343A3400343234E8
:100B58002E3420344734723469346C346C340034A5
:100B680031342E3420344D346934633472346F3464
:100B7800003434342E3420345334743461347234B1
:100B880074340034543449344D34453420343D34BD
:100B98002034003435342E345034413455345334F1
:100BA8004534003436342E34533454344F345034AE
:100BB8000034543449344D3445343A3400345434D0
:100BC80045344D3450343D340034C130F600813062
:100BD800F7000A128A154F260A128A1189308312E1
:100BE8000313A8000A30F2000030F3003E08AA0000
:100BF800AB012A08F4002B08F5000A128A112924EF
:100C08000A128A117208303E0A128A1517260A1229
:100C18008A118A3083120313A8000A30A400003016
:100C2800A5003E08AA00AB012A08A6002B08A700C9
:100C38000A128A15A7270A128A1183120313240895
:100C4800303E0A128A1517260A128A118B3083122F
:100C58000313A8003A300A128A1517260A128A11B5
:100C68008C3083120313A8000A30F2000030F3001E
:100C78003F08AA00AB012A08F4002B08F5000A1265
:100C88008A1129240A128A117208303E0A128A151A
:100C980017260A128A118D3083120313A8000A300E
:100CA800A4000030A5003F08AA00AB012A08A6004E
:100CB8002B08A7000A128A15A7270A128A1183127D
:100CC80003132408303E0A128A1517260A128A11BD
:100CD8003230F600C230F7000A128A154F260A127F
:100CE8008A11C930F6009230F7000A128A154F2689
:100CF8000A128A11D130F600D230F7000A128A158A
:100D08004F260A128A11831203133E08031D8D2EE3
:100D18008E2EC52E3F08031D922E932EC52E0A1225
:100D28008A15F3250A128A11831203131211071167
:100D38009130F600C430F7000A128A154F260A12BD
:100D48008A112230F6009030F7000A128A154F26D1
:100D58000A128A11333083120313AC00BB30AB0084
:100D6800DF30AA00AA0BB62EAB0BB62EAC0BB62EF4
:100D78000A128A15F3250A128A11203083120313E6
:100D8800C00008008312031388110815881408147A
:100D98006430F2000030F300FF30F2070318F30A62
:100DA800FF30F307720A031DDD2E730A031DDD2EC3
:100DB800DE2ED02E831203130618E32EE42EE62E21
:100DC8000130802F8618E92EEA2EEC2E0230802F73
:100DD8000619EF2EF02EF22E0330802F88150811F9
:100DE800881408146430F2000030F300FF30F20772
:100DF8000318F30AFF30F3077308803AFF008030C6
:100E08007F02031D092F0130720203180C2F0D2FCA
:100E1800FA2E831203130618122F132F152F0430DE
:100E2800802F8618182F192F1B2F0530802F061991
:100E38001E2F1F2F212F0630802F88150815881088
:100E480008146430F2000030F300FF30F207031892
:100E5800F30AFF30F3077308803AFF0080307F02FF
:100E6800031D382F0130720203183B2F3C2F292F06
:100E7800831203130618412F422F442F0730802F67
:100E88008618472F482F4A2F0830802F06194D2FD4
:100E98004E2F502F0930802F8815081588140810F8
:100EA8006430F2000030F300FF30F2070318F30A51
:100EB800FF30F3077308803AFF0080307F02031D7C
:100EC800672F0130720203186A2F6B2F582F831275
:100ED80003130618702F712F732F2A30802F86184E
:100EE800762F772F792F0030802F06197C2F7D2FB2
:100EF8007F2F2330802FFF30080083120313AD01AA
:100F08002D08803EA800FF300A128A1517260A12FB
:100F18008A11033083120313AC008A30AB005530BA
:100F2800AA00AA0B952FAB0B952FAC0B952F013070
:100F380083120313AD0710302D02031CA42FA52F15
:100F4800842F7930F600C330F7000A128A154F262D
:100F58000A128A114130F6009230F7000A128A15F7
:100F68004F260A128A1183120313AE012E08D03EAF
:100F7800A800FF300A128A1517260A128A110330B0
:100F880083120313AC008A30AB005530AA00AA0BB9
:100F9800CB2FAB0BCB2FAC0BCB2F01308312031312
:100FA800AE0710302E02031CDA2FDB2FBA2F1A30AF
:100FB80083120313AC005E30AB006D30AA00AA0B9D
:100FC800E32FAB0BE32FAC0BE32FEA2F08000A1239
:100FD8008A15D8250A128A110A128A15E3250A12D7
:100FE8008A110A128A11F1240A128A11831603132C
:080FF80007110B178B1708000D
:101B9C001E3083120313BF00BE01121507157030DF
:101BAC00C0000800831603138801091189100A125A
:101BBC008A118E240A128A1508008316031306084C
:101BCC00073886000808F039880081138312031344
:101BDC0088150815881408140800F20101300A123F
:101BEC008A15BE260A128A150430F7003D30F6001D
:101BFC00F60BFE2DF70BFE2D032E0800F400F3015F
:101C0C00741C092E0A2E0C2E7208F3070310F20D09
:101C1C000310F40C7408031D142E152E062E7308D5
:101C2C00080083120313A900F20128080A128A156E
:101C3C00BE260A128A15F201F20A8312031329082E
:101C4C000A128A15BE260A128A150800F4000A1216
:101C5C008A11C6260A128A15F5007408031D372E40
:101C6C00382E3A2E75084E2E750A03193E2E3F2E2D
:101C7C00462E7B080319432E442E462EFB01382E8C
:101C8C00750A031D4A2E4B2E4D2E0130FB00FF30E2
:101C9C000800F20177080A128A15BE260A128A1564
:101CAC00672EF201F20A760884000A128A110025C6
:101CBC000A128A150A128A15BE260A128A150130D2
:101CCC00F607760884000A128A1100250A128A1572
:101CDC00003A031D722E732E572E0800AF30F600FB
:101CEC008330F7000A128A154F260A128A15A6307D
:101CFC00F600C330F7000A128A154F260A128A150D
:101D0C005E30F6009330F7000A128A154F260A123D
:101D1C008A15B830F600D330F7000A128A154F2610
:101D2C000A128A150800F601F701721C9E2E9F2ECE
:101D3C00A52E7408F6070318F70A7508F707013083
:101D4C000310F40DF50DFF3E031DA62E01300310FC
:101D5C00F30CF20CFF3E031DAD2E72087304031D31
:101D6C00B82EB92E9B2E7708F3007608F2000800E7
:101D7C00F5007218C22EC62E831203130915C92E34
:101D8C008312031309117508F03988008914A630E1
:101D9C00F300F30BCF2E0000831203138910750888
:101DAC000F39F30003300310F30DFF3E031DD92E42
:101DBC000310730D88008914A630F300F30BE42E86
:101DCC0000008312031389101B30F4009E30F300C3
:101DDC00F30BEE2EF40BEE2E00000800831203130F
:101DEC008C1CF92EFA2E242F0130F9070318FA0A4D
:101DFC000030FA07E2307906043003197A06031D25
:101E0C00082F092F232FF901FA013F0803190F2F6F
:101E1C00102F132F0130BF021C2F3E080319172F50
:101E2C00182F1C2F0130BE023B30BF003D08031998
:101E3C00202F212F232F0130BD028C1071088A0016
:101E4C00700E8300FE0E7E0E090083120313200811
:101E5C0021040319322F332F602F0130A4003F2FA0
:101E6C0001300310A00DA10DFF3E031D372F0130D3
:101E7C00A407A11F422F432F362F21082302031D35
:101E8C00492F20082202031C4C2F4D2F532F2008C2
:101E9C00A2022108031CA303A30201300310A10C0E
:101EAC00A00CFF3E031D542F0130A402031D5F2F15
:101EBC00602F432F2308A1002208A0000800F60180
:101ECC00F7017208730403196C2F6D2FA22F0130C8
:101EDC00F800792F01300310F20DF30DFF3E031DB6
:101EEC00712F0130F807F31F7C2F7D2F702F0130DD
:101EFC000310F60DF70DFF3E031D7E2F73087502C0
:101F0C00031D8A2F72087402031C8D2F8E2F952FA0
:101F1C007208F4027308031CF503F5027614013001
:101F2C000310F30CF20CFF3E031D962F0130F80248
:101F3C00031DA12FA22F7D2F7708F3007608F20046
:101F4C000800F70183120313A71FAD2FAE2FB52F77
:101F5C00A609A709A60A0319A70A0130F700A51FAD
:101F6C00B82FB92FBE2FA409A509A40A0319A50AD5
:101F7C00240825040319C32FC42FF12F0130F600B8
:101F8C00D02F01300310A40DA50DFF3E031DC82F4B
:101F9C000130F607A51FD32FD42FC72F25082702F2
:101FAC00031DDA2F24082602031CDD2FDE2FE42F5D
:101FBC002408A6022508031CA703A702013003105E
:101FCC00A50CA40CFF3E031DE52F0130F602031DEA
:101FDC00F02FF12FD42F77080319F52FF62FFB2FA5
:101FEC00A609A709A60A0319A70A2708A500260807
:041FFC00A400080035
:02400E00FB3F76
:00000001FF
